:020000040000fa
:080000009e78040000000000de
:020000040000fa
:100200009e78040000000000005d04000000000073
:10021000b470040000000000b03e040000000000c4
:10022000583a040000000000bc590400000000001f
:100230000637040000000000443b040000000000fa
:10024000743c0400000000000e3d040000000000ab
:10025000283d040000000000da3b0400000000001c
:100260006e3d040000000000843d0400000000001a
:10027000e8470400000000003845040000000000ca
:10028000d8460400000000001c48040000000000e4
:10029000164704000000000026480400000000008b
:1002a000de4a0400000000007c4b04000000000057
:1002b000a64b040000000000ce4b0400000000002c
:1002c000024c040000000000244c04000000000068
:1002d000464c0400000000006e4c040000000000ca
:1002e000944c040000000000d84c04000000000002
:1002f000164d040000000000684d040000000000de
:10030000884d040000000000a84d0400000000001b
:10031000ce4d040000000000ee4d0400000000007f
:10032000144e040000000000344e040000000000e1
:10033000065b040000000000285b040000000000d1
:100340004a5b040000000000885b0400000000001d
:10035000965b040000000000b25b04000000000097
:10036000005c040000000000105c040000000000bd
:10037000245c040000000000385c04000000000061
:100380004c5c0400000000007e5c040000000000e3
:10039000ba5c040000000000ee5c040000000000f5
:1003a000ac66040000000000ec66040000000000e1
:1003b000186704000000000040670400000000000f
:1003c00068670400000000009c6704000000000053
:1003d000cc67040000000000146804000000000066
:1003e0003a6804000000000090680400000000006b
:1003f000b8680400000000000e690400000000005e
:10040000ac69040000000000e66904000000000080
:10041000546a040000000000641e04000000000094
:10042000d818040000000000b40e04000000000012
:100430000a00fa0011002000b1bf9f00c0bf9f005a
:100440006a805700e21107004fb897000080fa0059
:10045000000006000a00fa00e20f500034003e00df
:1004600060678000e10f500003003200e20f50008f
:1004700011003a000c003700c32020000300e00008
:1004800001003a000040da000c02e20002003500f0
:100490001422ef000de2a8000f42ab000d003a005d
:1004a0000f42a8000b003700632120000300e0008a
:1004b00001003a000040da001602e20002003500b6
:1004c0001e22ef0017e2a8001942ab0001003a001b
:1004d0001942a800820178000b0037003102fb00ae
:1004e000e10f500004003a000f22ab00feff3a007b
:1004f00084108800030037001922ab00feff3a0089
:10050000d41088008301e9000300e000f3ff3a0003
:10051000e10f500003003a000f02ab00feff320073
:100520000b0037001902ab00feff32000800370055
:1005300033002000b3bf9f00c0bf9f00d1bf9f000a
:10054000e2bf9f006a805700a31107006fb99700b0
:10055000020078000080fa0000000600000005009c
:10056000839f68000100e00002003d006000100071
:10057000e08018000300e00002003d00600111006f
:10058000e0811900420007004f00e00002003b003c
:1005900060001000e080180000000600f4ff2f004b
:1005a000a00337000001be00240007000470a7006c
:1005b00003f0a1006509b100160032000d003500fe
:1005c0006828e10006003500f0ff2f00f1ff27004a
:1005d0000300e00013003b000100280000000500bc
:1005e00000004000818048008502e900fcff3a00dd
:1005f00008003700f88f420002003c008000eb004a
:10060000000005008100d1000080d3008502e800d1
:10061000fcff3a000300e00002003b006000100015
:10062000e0801800000006004f89de00820178009b
:10063000970337006011b800a5033700c70ade0032
:10064000f107b200f50fb20008003200e1cf42001e
:10065000020032000170a00024000500810f70002c
:10066000010032000408050044000500810f7000fd
:1006700002003a00140005008502e9000000400075
:1006800081c04800fcff3b000170a0002400050071
:100690006022b800060220000000d0008180d20055
:1006a0000482d2008582d2000000a0000202520023
:1006b00083825a00030031000202420083824a0012
:1006c0000000a1000603e900f3ff3a000000060065
:1006d00007f82700078361000638e10004003a00ac
:1006e000f7072000878361008703710001003a004b
:1006f00003f0a200889fbe008a9fbe008c9fbe00b0
:10070000470ade000480a100c71ade000580a100b0
:10071000070028000785600087856100f70f20002b
:100720000720e1009e0032000728e1009c00320013
:10073000010678000400e000b4003200f707200052
:10074000878060000170a0000500e000c00032005a
:10075000f7072000878161000370a00005065200a2
:100760000f003a000b50e1000b0032000308e100db
:1007700002003a000200e1007e0032000204500054
:1007800083845800040031000001fd008101fd0058
:100790008402fd008a05fd006044b8002100370096
:1007a0000520e10005003d000001fd008101fd0084
:1007b0008402fd008a05fd00050652007a60e10012
:1007c000050035000170a1004722dd008480700023
:1007d0008a807000630037006044b800ef02660052
:1007e00007ff2f00070666000500e0000600340042
:1007f000f08312008714dd000511de00071bdd0009
:10080000060171008519de007060e1000500350009
:100810000904780082047800030178008001eb006d
:10082000700656000b50e10003003a000200400041
:10083000838048000400370060041400e0841c003a
:1008400002005800838058000188a300060032008f
:100850008100d1000080d3008984d3000884d300b4
:100860000402e800270037000178a30025003a00c1
:100870000100e000030032008186cf006986560047
:100880000a0037008c0020000000e00004003a005d
:1008900009007800880478000004eb007002520020
:1008a0008086cf000d0646000c06e9007060e1006e
:1008b0000600350080007800090078008804780080
:1008c0000004eb0070065600700252000c00e000bd
:1008d0000c0034008c08dd00f00316000703de0076
:1008e000868070000c00dd00074bde000600700003
:1008f0008c4cdd000743de00868474000c44dd0070
:100900000c0252006120e10020003500610160000e
:100910000700280087816400f7ff270087836400b1
:10092000070374000300e000060032008203730036
:10093000040032000000e800e08048000188a300c5
:100940000e003a00f70f20000720e1004a003d00aa
:100950000170a1004722dd00810072008a807000d2
:100960000000be004f06be004f05be004f04be0093
:10097000000006006000b800faff37008100d100d7
:100980000080d3000402e800eeff37000401780085
:1009900089017400a10107008a807000f1ff37000f
:1009a000f7010700070278000001fd008101fd004a
:1009b000f301070087027800850372000778a3001f
:1009c000040032000001fd008101fd000602070065
:1009d000e4ff3700850362000768a30008003200c7
:1009e0000b50e10003003200f0ff2f00f1ff270061
:1009f000dcff37000001fd008101fd00d9ff370059
:100a00000468a300d7ff3200faff3700f8ff270081
:100a1000888360000b003a000000e00009003a0003
:100a20008303640082837300020032000200be0070
:100a3000ccff37000b50e100ceff3a000200be00b1
:100a4000c8ff370014002000810064003eff37001b
:100a5000f8ff27008883610004003a000200e000ec
:100a600002003a008c007800beff3700150020001d
:100a70008301640039ff370001f8270000002000df
:100a800081007500b7ff3700889fbe008a9fbe00b7
:100a90008c9fbe001b0020000202be00058668007d
:100aa00006002800060666004709de00f20fb200c5
:100ab000820032000243e80080003200c729de00d5
:100ac000f30fb2007d0032000343e8007b003200e8
:100ad000f107b2000170a000f507b2000570a00098
:100ae000c708dd004903de00868070004700dd0096
:100af000c72add004923de00868272004722dd001e
:100b000003055100040350008583580003003100a1
:100b100000004000818048000a05e9008c1f780031
:100b20008a9fbe00040050008580580004024200e5
:100b300085824a0000004000818048000005eb00eb
:100b40000004be006033b8000406be000d48e1009a
:100b500056003100110009004dccd8000c01b8003e
:100b60000d02b8008481410060824a0082835300f4
:100b700003045c0084845c0060055d000a00e00002
:100b800025003a00800578000d40e1004900310061
:100b90008800780007007800110009004d88d8000f
:100ba0000c01b8000d02b8008481410060824a0047
:100bb0006003110083835b0004045c00e0845c003c
:100bc0000900e00021003a004f01be000300e000f0
:100bd0002b003200e3016000070673008c81710076
:100be00001003200640070004200de004e5edd0055
:100bf0000c007000c258de0001e0a0008301070075
:100c0000cf017800818071004f06be004f05be0005
:100c10004f04be00000006008c8343000d044c000e
:100c2000e0844c0060054d000000e9000a00e0008f
:100c3000d4ff32008c8343000d044c00e0844c0050
:100c400060054d000000e900ceff37000c034300b3
:100c50008d834b0060044c00e0844c000000e900f0
:100c60000900e000d8ff32000c0343008d834b00e5
:100c700060044c00e0844c000000e900d2ff370023
:100c80004200de004e5edd000c007000c258de0047
:100c900001e0a000cf0178000300e000daff32009d
:100ca00060001000e0801800d7ff3700f0ff2f0031
:100cb000aaff3700f0ff2f00b9ff37000404be0081
:100cc0002f010700870678000004fd008104fd0065
:100cd0002b010700078366000678a300030032009b
:100ce0000960a7000800be002c0037000d78a300a3
:100cf000020032000800be00280037000778a30079
:100d000026003a0001f0a10009f0a1000668a30046
:100d100003003200f1ff2700f0ff2f00baff370079
:100d20000d68a300030032000800be008c80700034
:100d3000b5ff37000768a30007003a000648a30084
:100d400003003200f1ff2700f0ff2f00aeff370055
:100d50000d48a300030032006000b8008c807000d2
:100d6000a9ff37000748a3000400320001f827005c
:100d7000000020008c807000a3ff37007601070080
:100d80000004fd008104fd000205780072010700e7
:100d90000802be008a01780059ff37000160a000f8
:100da000120220002248880097ff37000100e0006f
:100db000120032000500e00010003200889fbe00e3
:100dc0008a9fbe008c9fbe000006eb0001f8a300c6
:100dd0000300320060001000e08018000cf0a0005a
:100de00005f8a3000300320060021200e0821a003e
:100df0000cf0a2008005eb0041ff37006000b80056
:100e00000200050003836800070028000703630051
:100e1000470ade000480a100c71ade000580a10099
:100e2000f70f20000720e100420032000728e10010
:100e300040003200889fbe008a9fbe008c1f780051
:100e4000f107b200f307b2000400e00064003200d2
:100e50000170a0000500e000680032000370a000ef
:100e600085054200eb07b1000204b8000302b80098
:100e70008484440060854a00020ab80084844400e7
:100e80000a854a00030ab80004054500040033003f
:100e90000804d0008984d2000a85d2008b05e900bd
:100ea0006158e1003d003500021020000901610099
:100eb0000308200089816100f70720008783640010
:100ec00008867300c84cde00c853dd0087847400b8
:100ed0004855de000300e000060032008203760081
:100ee000040032008904e80060054d000a88a30070
:100ef0000c003a00f70f20000758e10044003d00c5
:100f00000a70a100c75ddd000a8575008a007300c4
:100f1000090078004f0678004f05be004f04be0060
:100f2000000006000a05d1008984d3008b05e80083
:100f3000f0ff3700881f7800060478009000070053
:100f4000070278000001fd008101fd008c00070010
:100f500087027800850372000778a300050032003d
:100f60000001fd008101fd009f0007004f04780093
:100f700000000600850372000748a300030032004a
:100f8000f0ff2f00f1ff2700f8ff370000002000de
:100f900001f8270088807000f4ff3700880178008e
:100fa0004848dd00808171004848de00c850dd00ff
:100fb00001007000c850de00060478000b017800c4
:100fc0001600070088807000d2ff37000500e0009f
:100fd00005003200170020003a0007009dff37008f
:100fe00081037000f9ff3a00860078004f06780010
:100ff0004f05be004f04be000000050083037100d2
:10100000f9ff3200270020002e00070094ff370070
:1010100001f8270086807000f4ff37000100e0002f
:1010200026003200610111007810e10023003c002d
:101030006022b8007010e1000400350080027800e2
:10104000010078008000eb00700151000200e00018
:101050000900340070031100062add00822ade0038
:101060008603dd00878272000200de00860bdd0051
:10107000070070008208de0084817100f4ff270001
:10108000048262008481710004002800848262006e
:101090006102600005f0a6000000060004827100f5
:1010a000070032000000e800e08048000000060071
:1010b0000002be006000b800efff37006000b8001b
:1010c00000000600889fbe000004eb006138e100cc
:1010d00016003a000100e00008003a00c800de00f7
:1010e0004800dd00880020000100e00003003a0015
:1010f000c800de004800dd00680444008184cf00a1
:10110000e9845400060034008908dd00f0831400ef
:101110008703de00878070000900dd0009044400b9
:10112000610214004f04be00000006000300e0004e
:1011300008003a00c811de004811dd0088002000d8
:101140000300e00003003a00c811de004811dd0092
:10115000680444008384cf00e9845400060034000e
:101160008919dd00f08314008713de008781710088
:101170000911dd0009044400e1021400e9ff370011
:101180002700200001f0a70017002000470bde0019
:10119000f60fb200040032000643e8000a003200f5
:1011a0004702b3000000060001037800f607b20012
:1011b0000603700002003a000703b30000000600b7
:1011c0008702b3000000060001037800f607b200b2
:1011d00006037000020032000770a0000000060045
:1011e0000760a000000006000478a300040032009d
:1011f0000578a300030032000168a30001003a0053
:101200000200be000160a000000006008101700025
:10121000270032008002eb0001f8a3000300320037
:1012200060001000e080180015002000f407200086
:101230000202420020003400f70320008703600010
:101240000604200000036300020820000001610082
:101250004700de00c909dd0000807100c708de001c
:101260000600e0000800320087037100060032002b
:101270001000b0000180b0000188a300020032001d
:10128000c108de000402e800f107b200f30f2000fd
:101290000320e10003003d004722dd0081007200d1
:1012a0002900370001f827000000eb002600370076
:1012b0006000b80000000600680212007f20e10014
:1012c000020034006000b8001f0037006011b80051
:1012d0007020e100040035008001780001007800f2
:1012e0008000eb00700252000400e00009003400ae
:1012f000f00312000719dd008419de000703dd008a
:10130000868171000400de00070bdd00060070001e
:101310008408de00f7ff27008383630087037100e2
:101320000600280003036300070032000700e00006
:1013300003003a0061016000028173000200320084
:101340001000b0000180b0000500a60000000600fb
:1013500001f0a000000006004f0ade004709de0091
:10136000f107b200f20fb2000b003200f207b10039
:101370000170a000c708dd00c901de008380700095
:101380004700dd000400a600000006006000100019
:10139000e080180000000600810f700001003a0094
:1013a000000006008182cf000500e00010003e0032
:1013b0008082cf00ee8242007028e10004003900f4
:1013c00007003e00800078000000eb000e003700b0
:1013d000708312008600de000500dd000a00370081
:1013e000708352008600dd000000eb00060037002d
:1013f000e28252008508dd00708312000603de00e1
:10140000868070000500dd007507b0000501ea0068
:101410000400a6000000060060001000e080180034
:1014200000000600889fbe008a9fbe00841f7800cf
:101430007c0007004f00780011003300f0ff2f0000
:10144000838f6c0006003b00040565000a00a700be
:101450000800370009f0a60010002000080037003f
:10146000820f5400838f5c000300390010002000bd
:1014700001003e000000200009f0a7000000ea0083
:101480004f05be004f04be000000e0000000060053
:10149000881f7800030478000300e00007003d0087
:1014a00060001000e080180060011900e081190060
:1014b00002003b0001f02d0003003700040007008c
:1014c00008f0a70001f0a0004f047800000006001b
:1014d000889fbe008a9fbe000082700004027100d7
:1014e00004827100260032000004be000200be002b
:1014f0006011b8006b092000950220000182cf0026
:101500000a0039000541b1000082cf000700390010
:101510000541b1000982cf00040039000541b10046
:101520000882cf00010039000541b1000542520098
:10153000120032000a003b008281710061016400e8
:101540008100d1000080d3008984d3000884d300b7
:101550008b05e8000442e800f7ff3a000700370077
:101560000804440089844c00000048008180480041
:101570008b05e9000442e900f9ff3a000300070087
:101580004f05be004f04be00000006008100200091
:10159000618055000b003d000b00200061fe2f0014
:1015a0000100e1001d0034008281710061016400ce
:1015b0008904d1000884d3000000e800faff3a0053
:1015c00071002000610064000300700002006000f0
:1015d0000900320061044400e0844c000988a50041
:1015e000050032008b05e8006808e10002003a00bf
:1015f0008904d1000884d300f20f20000258e100d2
:1016000005003d00c75ddd00f907b2008980750067
:1016100008007800000006000bf827008b00780017
:10162000000005000004be0004fc07000003be002b
:101630000405be000200be0000fc0700844f7500d8
:10164000000006000400fa00889fbe008a9fbe00ca
:101650000004be004709de0003002000f20fb200c4
:10166000f207b100f60f510030003c000200e0002c
:101670001c003500faff2f00fb0720000201e900e3
:10168000030033008b85d1000a85d300fbff3700b0
:101690008b8164000a016000e00f5100e08f590067
:1016a000220032000200200003b8270011fc0700ce
:1016b000a0bf9f00b1bf9f00e00f5400e08f5c000f
:1016c00002003d000a0444008b844c000a85ea00b5
:1016d0008b85ea008b8064000a0064000004be0071
:1016e000110037000200200003b8270001fc0700aa
:1016f000a0bf9f00b1bf9f00e00f5400e08f5c00cf
:10170000020035006044b8000700370008004400bc
:1017100089804c00e00f5000e08f5800020032003a
:101720000800200009f82b000800be004f05be008d
:101730004f04be000080fa0000000600f687470054
:10174000889fbe008a9fbe008c9fbe008e1f7800bf
:101750000001be000600200007f82f000003430030
:1017600081834b00f4ff2f00f5f72700840f53000f
:10177000858f5b001b00360000024000818248001c
:10178000e00f5200e08f5a0006003a000001be0050
:101790009cfd07000001be000000200001f82b00a6
:1017a00008003700e00f5000e08f580007003d00b0
:1017b00012022000526788000001be00c4fb07002f
:1017c0006011b800b0fc0700a10037000200200043
:1017d00003c024008bfd07000001be007efe2f0029
:1017e0000a003700840f5000858f580098003e0093
:1017f0006000b8000400200005f82300840f5100a9
:10180000858f5900920032000007eb00d0b02f0006
:10181000a1042000020240008382480094b79f0088
:10182000a5b79f00fe07b100afb09700f107b20067
:1018300004007800324f200053f3230000004100e1
:10184000818049000200200003f82300a0fb07006c
:101850000004be000200200003002400a5fb0700d6
:101860000001be000800be0087fc07000002be00a9
:101870000001be00f4b79f0085bf9f0061fd070017
:101880000006be000001be005efd07000005be00b0
:101890000200200003f023000800be0059fd0700ed
:1018a0000801be0057fd07000001be00f0af9f0019
:1018b00081b79f000800be0085fb0700810178000a
:1018c000c3b79f0002002f0000016100b2b79f0064
:1018d0003fb19700cfb197000800be007cfb070026
:1018e0007fa997008fb1970079fb07000003be0026
:1018f000e29e2e0013e923000a00be00d6b79f0027
:10190000e7b79f003ffd0700a2aa2a00a3f2230029
:1019100078fb07000001be000c00be0039fd070087
:101920000004be0062e2290083e723000a00be0033
:1019300034fd070032e12c00c3ec23006dfb0700ef
:101940000001be000a00be002efd07000001be001f
:101950000800be0067fb07000001be007fa89700db
:101960008fb0970063fb07000001be007fb29700b5
:101970008fba97000400be0022fd07000001be00e0
:101980005fb39700efb397000600be0059fb070056
:101990000005be001fb29700afb297004728de00d7
:1019a0000100200000004700cf80de001efb070082
:1019b0000004be00b27d22004355230011fd070044
:1019c0000006be003fb19700cfb197000a00be00ed
:1019d00048fb070092ad2e0043802b0009fd070055
:1019e0000001be000c00be0042fb07000006be0066
:1019f00002002600e3ed23000a00be0001fd0700ff
:101a00000001be000c00be003afb07000005be004e
:101a100002002600e3ed23003fb09700cfb097000f
:101a2000f8fc07000001be000a00be0031fb070001
:101a30000005be0002082200a3e923000800be0042
:101a4000f0fc07000001be000a00be0029fb0700f1
:101a50004f0778004f06be004f05be004f04be0082
:101a60006f01b100000006000000fa006881570015
:101a7000cfb89700905f800010007800a70507009e
:101a80000080fa0000000600ef00070023040700b2
:101a900057040700d3040700fb04070041060700b2
:101aa000ec0537000000fa0068815700cfb89700b6
:101ab000905f800010007800980507000080fa0011
:101ac00000000600e000070014040700c50407003a
:101ad000ed0407004604070032060700dd05370065
:101ae0000000fa0068815700cfb8970099050700f9
:101af0000080fa0000000600d30007002c01070058
:101b0000060407003a040700b6040700de040700d5
:101b1000b105070023060700ce0537000000fa00d4
:101b200068815700cfb897008a0507000080fa0047
:101b300000000600c4000700f8030700a90407001e
:101b4000d10407002a04070016060700c105370064
:101b5000800078001000200002022000828f5000d8
:101b600004003200e9805000e48f5000010036008c
:101b70000000eb0000000600889fbe008a1f78006e
:101b8000000578000a047800984478000805e80009
:101b90000900fb00eeff07000000e000f9ff3a003b
:101ba000b0c2b30080cf540005003200d0c2b300f1
:101bb0008000eb0080cf540005003a00020037009f
:101bc0008000eb0001003700110020000804e8004d
:101bd0000000eb00030037006a02b9000200520067
:101be0000003b0003801fb0003fd2f00828141009b
:101bf000e98f5100f8ff36000100e00001003a00d3
:101c00000000ea004f0578004f04be000000060007
:101c1000800078001000200002022000828f500017
:101c200004003200e9805000e48f500001003600cb
:101c30000000eb0000000600889fbe008a9fbe00e7
:101c4000000578008a047800194478000905e80046
:101c50000800fb00eeff07000000e000f9ff3a007b
:101c6000b0c2b300804f540004003200d0c2b300b1
:101c7000804f540006003a00020037000004eb00d9
:101c800001003700180020008904e8000100370037
:101c90000004eb006000b80006003700a20020003e
:101ca00003002000230c0700cfd5de000a005000ff
:101cb0008b8058003905fb000a03b100e90f55007d
:101cc000f6ff36000800e00002003a006000100055
:101cd000e08018004f05be004f04be000000060063
:101ce0008000780002fd2f0001014100100020005b
:101cf000e90f5100050036000150a0001106b100a7
:101d0000e58f5000010036000000eb0000000600e7
:101d1000f3ff37008001780002003700b1597800e6
:101d20000201e9000200e000fcff3a0000000600aa
:101d30000000fa0068815700cfb89700905f8000dc
:101d4000100078002e0007000080fa000000060056
:101d50000000fa0068815700cfb8970036000700ee
:101d60000080fa00000006000000060080bf20008e
:101d700000000600fdff0700b05f8800a05f88003c
:101d80000000060080007800040037003104e00005
:101d900002003a0000005100000006000101780036
:101da0000108a300f9ff3a008101780031017800b1
:101db000f4ef2f00020242000281ea0002016200f9
:101dc0000408280004016100f7ff32008300780056
:101dd000010178003104e000fdff3a0000005100ed
:101de00000000600f1f92f0080804000f98f5000bc
:101df00001003e00f005b20000000600f9ff3700c8
:101e00000200fa00881f780000047800e2bf9f00fb
:101e100064815700080078006c0707009800900064
:101e20000148a300010032000080eb004f0478005d
:101e30000080fa00000006008201780001017800ad
:101e4000f1ff27004e083700ec874700889fbe004f
:101e50008a9fbe008c9fbe008e1f7800000678000f
:101e60000104780018079000280590009806780073
:101e7000cdb79f00b80590003202be002203be001d
:101e80000400be000601be004f18de006011b8005d
:101e90008000eb00d0b79f00e1b79f00f2b79f0032
:101ea00083bf9f00800478000900e0000600320034
:101eb0006000b8006011b80004025000858258002c
:101ec00006035900878359000e00e0000200350028
:101ed0000d10a100cdb79f000900e00005003a00f9
:101ee0004fb097000028a30002003a000038a3007a
:101ef000020032008a00e900010037008a00780001
:101f0000f8815700a2002000080078006203070053
:101f10000900e00003003a00cfb097000128a300b9
:101f2000080032000000e90000814500b1c2b300a2
:101f30000900e00001003200d1c2b300014978007d
:101f4000050037000138a300030032000000e9005b
:101f500001c2b30081757800480190000201e900d8
:101f600000015100808045004fb297008a0178003f
:101f70000c007800560507009c0090000188a30023
:101f80000400320098009000810f500001003d00d5
:101f9000010078004f0778004f06be004f05be00d5
:101fa0004f04be00cf00b100000006000000060094
:101fb0004200fa00889fbe008a9fbe008c9fbe0030
:101fc00020079800110f9800034f98001100780027
:101fd000400f980091009000610f98009e099000ba
:101fe000a3019000330f98001e0a90004402900055
:101ff000140798009e0a9000b502900005279800eb
:102000003204be002205be006022b8006033b80072
:102010000800be000a01be00f10a07000000e0004f
:1020200003003d000bf0a200d0c2b3000400370053
:102030004e0b90000628a30009003200b0c2b30086
:102040008e239000804b78003e0890000000e9004d
:10205000700f980011002000510f980010003700f9
:102060004e0990000238a3000900320000c2b300fc
:102070008e219000804978003e0a90000402e90019
:10208000740f980015002000550f980004003700c9
:102090003e0b9000760f98008003eb00570f9800de
:1020a0000800be000a01be00c0ff0700f4ff2f00b9
:1020b000f5ff2f00f6ff2f00f7ff27000402600056
:1020c0008582600006036100878361006000b800bc
:1020d0000200200003ff27000020e10001a8e1002a
:1020e00002b0e10003b8e10011003a000e48900090
:1020f0008000fb001104b1000e219000de09900069
:1021000003004100f98f500002003e0001cb200087
:102110000100370041cb20008107070040cb2000a1
:1021200018ff07005e0a9000040140001500370008
:102130000020e10001a8e10002b0e10003b8e100e5
:10214000130036008e4a90008500fb001104b10098
:102150000e239000de0b900007004300f98f500023
:1021600002003e0081cb200001003700c1cb2000df
:102170006b070700c0cb200002ff0700de089000bd
:10218000010140004e0a9000be0990005002370045
:102190006022b8006033b8000800be000a01be002b
:1021a0008f0a07000000e0006a0032006022b800d9
:1021b0000600200007ff23004417980055179800d9
:1021c00066179800771798008006eb000800be009d
:1021d0000a01be00001f9800111f9800221f9800de
:1021e000331f98000e269000070037008d06e80088
:1021f0000802be000a03be00441798005517980055
:1022000066179800771798006022b8000600200033
:10221000470224004e109000de1090006e119000d6
:10222000fe119000c90b07000004be000205be00ad
:102230000002be000203be000e1890009e1890001f
:102240002e199000be199000650a07000000e000fa
:10225000e6ff3d000c2798000006eb004e149000ae
:10226000de1490006e159000fe15900025003700da
:1022700040ed2f00808f560019003d000c00e0005b
:1022800016003a006022b80006002000073524003e
:102290000e1890009e1890002e199000be19900004
:1022a000aa0b07000002be000203be00041f980034
:1022b000151f9800261f9800371f98006022b8004d
:1022c00006002000073524000800be000a01be00f9
:1022d0009e0b07000004be000205be001c0020008b
:1022e0006022b80006002000470224000800be005b
:1022f0000a01be00e60a07000004be000205be0097
:102300008d06e9000802be000a03be000e18900008
:102310009e1890002e199000be199000300a0700f8
:102320000000e000d2ff35000800be000a01be0038
:10233000401798005117980062179800731798007b
:102340000e1c90009e1c90002e1d9000be1d900043
:10235000080037006022b8000600200007ff2300b5
:10236000441798005517980066179800771798003b
:102370008006eb008e4a90000500fb00f90607007e
:10238000104f98006e0b9000600020000600e000e7
:10239000010035006e08900071c6b3009e4b90009e
:1023a00081cf53000a003a00ee0890000100e000df
:1023b000cf013200cf0137008d0f5000d3013c0018
:1023c000001f980052c6b300425f98001e003700fd
:1023d0009e499000435f98000200370064c6b30036
:1023e000445f98000000e800001f980060c6b3003a
:1023f000ce5a900080cf520013003a000d00e0004a
:1024000008003d006000b8000200200003ff230028
:10241000401798005117980062179800731798009a
:102420008006eb0061c6b300415f980070c6b30040
:102430001e499000804f5100030032008e19900019
:102440008d814100031f98004e129000de12900013
:102450006e139000fe139000441f9800551f9800c3
:10246000661f9800771f98000800be000a01be0092
:10247000001798001117980022179800331798003a
:102480000006eb000802be000a03be0054079800d5
:102490006507980076079800070f9800310037000d
:1024a0004e1a9000de1a90006e1b9000fe1b9000ea
:1024b0000e1090009e1090002e119000be11900002
:1024c000730a0700cd0d07000004be000205be0020
:1024d000ec09070080027800250f98004e1a900042
:1024e000de1a90006e1b9000fe1b90000800be00dc
:1024f0000a01be00150b07000e1290009e129000fc
:102500002e139000be139000100a07000002be00b8
:102510000203be0007f0a2000417980015179800e8
:1025200026179800371798006022b8000600200090
:10253000470224004e189000de1890006e1990009b
:10254000fe199000520a07000002be000203be00fe
:10255000441f9800551f9800661f9800771f980029
:102560000c06e8008e1a9000850f5600ccff35004f
:102570005e049000ee0490007e0590008e0d9000a9
:102580006022b80006002000470124004e18900089
:10259000de1890006e199000fe199000eb0a0700fb
:1025a0000002be000203be00441f9800551f9800a1
:1025b000661f9800771f98000e1090009e109000e4
:1025c0002e119000be119000850907000000e00068
:1025d0000f0035004e1a9000de1a90006e1b90001e
:1025e000fe1b90000e1090009e1090002e11900087
:1025f000be1190007a0907000000e00011003a00c7
:10260000ae0a90000508a300080032000d00370054
:102610006000b8006011b800401f9800511f98007a
:10262000621f9800731f9800060037006022b800f0
:102630006033b800441f9800551f9800661f98002b
:10264000771f98004e1a9000de1a90006e1b9000c3
:10265000fe1b90000800be000a01be00c109070071
:102660000002be000203be00041798001517980070
:1026700026179800371798006022b800060020003f
:10268000470224004e109000de1090006e11900062
:10269000fe119000ad0a07000004be000205be0056
:1026a0000002be000203be000e1090009e109000bb
:1026b0002e119000be1190004e0907000000e000ae
:1026c000090035008d06e80060c6b300ce5a9000c0
:1026d00080cf520008003a000e1b90000603e8006d
:1026e000061f9800110037004e149000de14900071
:1026f0006e159000fe15900050c6b3004e59900024
:10270000804f510009003a000802be000a03be00d3
:10271000441f9800551f9800661f9800771f980067
:102720008002eb0045179800070037000800be0044
:102730000a01be00401f9800511f9800621f9800b8
:10274000731f98004d1798005e0e90000001eb007b
:10275000220f980032079800520798000d0f78005a
:102760006a0037004e1a9000de1a90006e1b90002f
:10277000fe1b90000e1090009e1090002e119000f5
:10278000be119000c20907001c0d07000004be0026
:102790000205be003b090700e90f500001003400ac
:1027a00090002000ce0990000348a3000c003a00de
:1027b0000000e0000a003a0071c6b3001e4a900013
:1027c000814f520006003a00ce1290000500e00052
:1027d00003003d002e0b90008606e8002300370022
:1027e000be0390000700e0000c003a00ce109000fd
:1027f0000100e00009003d00e1c2b3000e2190009d
:1028000001717e000c06e800fe0990008301e900da
:10281000730f980014002000340798008e22900057
:102820000c814200ae0e9000850178000300370055
:1028300001c3b300015978008d06e9000d00e000e6
:10284000fbff3a00032798002e0b90000606460077
:102850000043b00080717e000c06e8000680ea00ac
:10286000fe0b900080834300770f98004e1a900073
:10287000de1a90006e1b9000fe1b90000800be0048
:102880000a01be00310a07000e1290009e1290004d
:102890002e139000be1390002c0907000002be000a
:1028a0000203be0007f0a200041798001517980055
:1028b00026179800371798006022b80006002000fd
:1028c000470224004e189000de1890006e19900008
:1028d000fe1990006e0907000002be000203be0050
:1028e000441f9800551f9800661f9800771f980096
:1028f000ce1290008502e900451798005e03900013
:102900000603e800560798002d0f9800de0390009c
:102910000e189000808f530005003d009e08900027
:102920004100900065005000800f56008dff390077
:102930009e0678003e0190000200e00007003a0089
:10294000ce0990000348a30004003200e0c2b300a7
:102950000e22900000727e000c06e8008e2290008d
:102960000c8042000048eb0051c6b3004e5b900063
:10297000814f530038003a009e0390008700e90021
:102980000041eb0082f278008001eb000d00e000d6
:1029900002003d008d06ea00130020002200200006
:1029a00001037800fe0a90008e2390000004780056
:1029b0000a00370001037800a4002000110009007c
:1029c0008406d80001027800800678000443b00035
:1029d00084737b000201e9008502e9008600e900ba
:1029e0000d00e000f3ff3a000200e000f1ff3c00c0
:1029f000750f9800072798000800780001824300af
:102a0000b2c2b3000300e00001003200d2c2b30042
:102a1000024a78000101e9008e2190008280410085
:102a20008e4a90000502fb001404b10053c6b300a7
:102a3000f90f520001003e0053c4b30083487800f0
:102a40007e0b90000683e900760f9800820f5600f7
:102a500001003d0032050700ce0b9000638063004b
:102a6000e20f500015003a007e0890000000e000e0
:102a7000120034000e209000c2fc07008e2190004e
:102a8000040037007e09900082804100e3707800e6
:102a90000000e900de0a9000850f5000f9ff3d00bc
:102aa00003279800058041007e0990000103200063
:102ab000b70407000003eb00360f98000e209000cb
:102ac000b0fc07004e0a9000be099000000178009b
:102ad0008e2090002e0090007d0207004f06be0061
:102ae0004f05be004f04be000080fa000000060043
:102af00010002000e48f46002ffe3d00001f9800cc
:102b000057c6b300475f98004ffe37000d00e00046
:102b100032fe3500001f980042fe37000200fa0026
:102b2000889fbe008a9fbe0080057800010478005f
:102b300002007800180190002805900098007800a5
:102b4000b1bf9f00b80490000200e0000200350011
:102b50000110a100b1bf9f00ea8157008200200050
:102b60008a0078003002be002003be000800780012
:102b7000490007003fb99700f000610003003200f0
:102b80000000e90001c3b300817478003fb99700e9
:102b9000e8006100030032000000e90001c2b30058
:102ba00081747800480190000201e90000015100a1
:102bb000808044003fba97008a0178000b007800bb
:102bc000430207009b0090000188a300040032002c
:102bd00098009000810f500001003d000100780036
:102be0004f05be004f04be000080fa000000060042
:102bf000ea874700889fbe008a9fbe008e1f78002c
:102c000000047800030078007287570084e22600f1
:102c100055c72600049fbe00c3962200030f78000c
:102c20006c875700004feb0011059000a104900045
:102c3000910578000200e0000200320002077800ef
:102c400001003700728757000000e00002003a00e0
:102c50000e0078004bfc07000a00e000030035007e
:102c60008a0f5000010036000a0078000b0278003d
:102c700089017800000178008e0078000800780053
:102c8000130207004f0778004f05be004f04be0037
:102c9000af00b10000000600f4874700889fbe0027
:102ca0008a9fbe008c9fbe008e1f78000605be0066
:102cb0000404be0081bf9f0082b79f00f3b79f004e
:102cc000b0009000e1b79f001301780092b79f0019
:102cd00090069000400090000000e9000006780097
:102ce0000d00e00001003d001d0020008040eb00d1
:102cf000efb19700817178001e0020001f0037009f
:102d00000c06e9000fb09700cf80de006109b90022
:102d1000a0b79f00b1b79f00c2b79f00d3b79f0075
:102d20000203be000002be000800be000a01be0091
:102d3000c70a0700000778000e4078000043b00083
:102d4000efb0970080707e008d06e9000fb9970004
:102d50000201e90082bf9f002fb29700bfb2970027
:102d60004fb39700dfb397000800be000a01be0012
:102d7000b00a07000205be000004be000c00e0001f
:102d80000d003400e00f5400e08f5c00e00f5d00a8
:102d9000e08f5d00daff3a000d00e000d8ff3c0054
:102da0008fb997000300e000030034001fb09700c4
:102db0000018a300d2ff3a000e00e00002003a0023
:102dc000ffb097001140a1000c0078004f07780079
:102dd0004f06be004f05be004f04be004f01b100bc
:102de000000006000200fa00889fbe008a9fbe0015
:102df00000057800010478000200780018019000b6
:102e0000a804900098007800b1bf9f00b80590001a
:102e10000200e000020035000110a100b1bf9f00d8
:102e2000ea815700a2002000890078003002be002d
:102e30002003be000800780097ff070048019000bb
:102e40000201e90000015100808045003fba97006f
:102e5000890178000a0078009d0107009a0090001f
:102e60000188a3000400320098009000810f5000f8
:102e700001003d00010078004f05be004f04be0078
:102e80000080fa0000000600fa874700889fbe0015
:102e90008a9fbe008c9fbe008e1f78008004780041
:102ea0000104780082057800180190002805900040
:102eb00018077800b80090000200e000020035001a
:102ec0000e10a10001003700120020007000670002
:102ed000e0b79f00090032003b02be002b03be009a
:102ee000e00f5200e08f5a00e00f5b00e08f5b00c4
:102ef000020032008a86e900010037008a06780065
:102f0000e8026700f5b79f00010032008d06e90076
:102f10003b02be002b03be00e4af9f00f5af9f0055
:102f200086b79f0097b79f00480690000c06e900ff
:102f30000040eb0080707e00efb297007fb29700f8
:102f40008903780081047800d8af9f0002047800dc
:102f50008bbf9f008a057800034578002a00370060
:102f60000c06e9006fab97006f006300e90f50009b
:102f700002003c000003b000010037007005b00003
:102f80000a03fb001604b100f90f53000c003e00c9
:102f9000000378000650a0001606b100f90f530098
:102fa00007003e00b4b79f00a5b79f00c7b79f00ba
:102fb0008cfb0700cfb39700afb297003fb29700ea
:102fc00080747e000804e9008d06e9006fa8970070
:102fd000ffa897000fb197009fb19700460020000f
:102fe0008301d1000281d3008180d3000080d3000f
:102ff0000603e900faff3a00e0af9f00f1af9f003f
:1030000082b79f0093b79f00e10f56000f00340076
:103010006fa89700ffa897000fb197009fb1970086
:10302000e00f5000e08f5800e00f5900e08f59008a
:10303000cbff3a000800e000c9ff3c000d00e000b3
:10304000020034000e18a300c5ff3a008900780082
:10305000f4b79f00870478005fac97008a4178003e
:103060000b0578008fbd97000500e00010003200ce
:103070003b02be002b03be00e4af9f00f5af9f00f4
:1030800086b79f0097b79f00e00f5200e08f5a006d
:10309000e00f5b00e08f5b00050032000c06e900ea
:1030a00083707e000c06e90000c3b30080707e00d0
:1030b000ffb297000500e000030032000c06e900b3
:1030c00000c2b30080707e00480190000201e90058
:1030d0000c0151008c8040000e0278008a017800bb
:1030e00009007800fa000700990090000188a30009
:1030f0000400320098009000810f500001003d0054
:10310000010078004f0778004f06be004f05be0053
:103110004f04be00af01b100000006000200fa003b
:10312000881f780000047800e2bf9f006481570088
:1031300008007800a5020700980090000148a3004d
:10314000010032000080eb004f0478000080fa009c
:10315000000006008201780001017800f1ff2700dd
:1031600056063700889fbe00000478004800900093
:1031700082047800808f54000100360080047800bb
:103180000901780058009000e2fa0700580090000a
:103190000900400050049800c80090008984500045
:1031a000490498000048eb004f04be0000000600f0
:1031b00010007800a7f43700900190000388a30066
:1031c00001003200e7ff37000348a30001003a0086
:1031d000f7ff070000000600881f78000004780051
:1031e00000082000808f50001700350010082000d4
:1031f000808f50000b00340030082000808f50007a
:1032000011003a00920078006880500000097800b0
:103210003002be002003be00049cbe000694be0027
:10322000070037009202780064805200000978009d
:103230001000be0074060700009cbe000294be0091
:1032400010002000010037000000eb004f04780060
:103250000000060084082000848f50001d0032000a
:103260000d003c0014082000848f5000270032001d
:1032700002003c000408200004003700240820005d
:10328000848f50003400320044082000848f5000a6
:1032900043003a0036003700040a2000848f5000b3
:1032a0002700320004003c0004092000848f5000f5
:1032b0003b003a0028003700020c2000828f5000ab
:1032c0002f003200020f2000828f500034003a009d
:1032d0002b0037009380e9000200e0000500320077
:1032e000810978001102fb00cfa2de00612bb9003a
:1032f0002800370081097800114278000482fb0021
:103300008002eb006033b80022003700130278001f
:10331000e40052000200e00005003200810978005c
:103320001102be004fabde008603780019003700a3
:10333000810978001102be006033b8001500370023
:103340009380e9008109780011027800cfa2de00a5
:10335000612bb9000f00370093027800e88052001b
:10336000810978003102be002103be000900370048
:103370009380e9000200e00002003200f1ff370014
:103380009380e90081097800110278008002eb0047
:103390006033b8000498be000690be00100005001f
:1033a0000000050044082000848f500025003200f2
:1033b00008003c0014082000848f500014003200e4
:1033c00024082000848f50002400320004082000cc
:1033d0000c00370004092000848f50001f003200c9
:1033e00004003c0084082000848f500024003a0030
:1033f0000e003700040a2000848f500011003200b4
:10340000040c2000848f50001d003a000d0037008e
:103410009380e90081097800910078000108780024
:10342000cf91de008288be00140037009380e9004f
:1034300081097800910078000108780082487800be
:103440000e0037009380e900810978009100780030
:103450000108780082087800080037009380e900ae
:103460008109780091007800010878006112b900a4
:10347000612bb9008498be008690be001000050044
:1034800000000500889fbe000004780048009000fe
:1034900082047800808f5400010036008004780098
:1034a00009017800580090001afa070058009000af
:1034b0000900400050049800c80090008984500022
:1034c000490498000048eb004f04be0000000600cd
:1034d000f2874700889fbe008a9fbe008c9fbe0077
:1034e0008e1f7800800478000105780002047800bf
:1034f000830578006107620002003a008b0f5400d8
:1035000008003900080178008a0078000900780076
:1035100029ff07008b0f540002003900880578004e
:103520001e003700088655000c017800f00f560089
:103530000100360002012000010220007e805700b9
:10354000130207008c0678000500370002012000f6
:10355000fe8057000900780017ff0700f08656002c
:10356000ef8f5600f9ff3e004461de0000ff2f00a0
:103570000091b90002014600fe8057000900780062
:103580000dff07000e00e00004003a00080178007b
:103590008a0078000900780007ff07000b00780018
:1035a0004f0778004f06be004f05be004f04be0017
:1035b0002f01b1000000060000000500000005001a
:1035c00000000500000178000040eb008080fb0057
:1035d0008180400063c7200063c278000404e000db
:1035e00003003a0070c7200060c0780000000600a9
:1035f00092017800934f520004003a0070c72000f7
:1036000060c078000309e800010037000040e800ce
:10361000ea4f5000edff360000000600f687470035
:10362000889fbe008a9fbe008c9fbe008e1f7800c0
:10363000000578000104780083057800040678000e
:103640000000eb00c0b79f008080eb00d1b79f0067
:10365000e0b79f00f2b79f000008200080bf9f00e6
:1036600098007800010078008004eb00010037002a
:103670008904e800304178000204e00003003200d1
:1036800053c2b300834f5100f9ff3a000900e00034
:1036900004003200090178000a007800c6fe070025
:1036a000188c44001807780050c2b3009e4f1000d9
:1036b0003f013a000e07e8000e0c780010003700ba
:1036c000cfb097000100a0000b003700cfb09700eb
:1036d0000110a00008003700cfb097000120a00023
:1036e00005003700cfb097000130a000020037007e
:1036f000cfb097000140a000c1b79f00000ce800c8
:103700001800780090407800b2c2b30082cf500019
:10371000f1ff320007003c0002c2b30082cf50002c
:10372000f0ff320032c2b30082cf500007003a00ef
:10373000efff3700d2c2b30082cf5000e0ff32006b
:1037400002c3b30082cf5000e0ff3200a2c2b30038
:1037500082cf50000d003a00000ce8001c80e90008
:10376000000e780010007800e0b79f000000e00035
:103770000f003d00cfb097000100a200c1b79f002d
:103780000000ea00e0b79f0009003700faf80700e0
:10379000e0b79f0001003700000ce8001800780037
:1037a0009000fb000103b100e98f5000faff3600e2
:1037b0004fb097000008a300020032000010a100e3
:1037c000c0b79f0018007800e1c2b30090cf10008e
:1037d00016003a008000eb00d1b79f000000e8001f
:1037e000000c7800a1c2b30090cf100006003a0090
:1037f000000ce8001c80e900000e78001000780042
:10380000d0b79f0009003700dbf80700d0b79f0052
:1038100001003700000ce800180078009000fb0061
:103820000103b100e98f5000faff3600080078006c
:1038300064ff070080467800180078001000fb0045
:10384000c801070091062000810f500038003200a7
:1038500012003c0041062000810f5000340032006d
:103860000a003c0011062000810f500020003200a9
:1038700031062000810f5000a000320051022000cc
:10388000810f5000bc003a00b400370071062000e0
:10389000810f5000b8003c0088003700010720006d
:1038a000810f50005c00320007003c00e106200060
:1038b000810f50007a003200f1062000810f500085
:1038c000ad003a003900370051072000810f500049
:1038d0002700320081072000810f50004200320093
:1038e00031072000810f5000a3003a008f003700fd
:1038f0008d80fb000c01780000fe2f000f004000bf
:1039000035fe07000000e000a80032001800780033
:10391000000ce8009041780002fe2f000f014100ea
:10392000f88057000a007800be0107000e0037003b
:103930008d80fb008c0178001200200000fe2f001b
:103940000f00400043fe07000000e0009700320037
:10395000180ce80002fe2f000f014100f88057000c
:103960000a00780038f9070080844400900037008e
:103970008d80fb008c0178000001eb0000fe2f0021
:103980000f00400033fe07000000e0008700320017
:10399000180ce80002fe2f000f014100f8805700cc
:1039a0000a0078000ffd0700efff37008d80fb0055
:1039b0008c0178000001eb0000fe2f000f0040009a
:1039c00024fe07000000e00078003200180ce80038
:1039d00002fe2f000f014100f88057000a00780016
:1039e0004efc0700e0ff37008d80fb008c01780063
:1039f0000001eb0000fe2f000f00400015fe070045
:103a00000000e0006900320018007800000ce800b7
:103a1000904178001c0037008c0178000001eb0019
:103a2000010f200000fe2f000f00400009fe0700dc
:103a30000000e0005d003200180ce8000fb09700b5
:103a40009fb097002fb19700bfb19700e00f5000d3
:103a5000e08f5800e00f5900e08f590009003a004c
:103a6000cfb597006fb49700e0c62000c5f80700f7
:103a70000b0278008801780000017800e1c6200080
:103a80004700370083c7b30002fe2f000f0141003b
:103a9000f88057000a007800fbfc0700b2ff3700ef
:103aa0000b8144008d80fb008c01780000fe2f000c
:103ab0000f0040003bfe07003c0037008d80fb00fc
:103ac0000c01780000fe2f000f004000c2fd07002f
:103ad0000000e0003500320018007800000ce8001b
:103ae0009041780002fe2f000f014100f88057003e
:103af0000a0078002ef907009bff370000c8b300ca
:103b000080cf560029003a00180ce8001c80e9001c
:103b1000000e780010407800e0df9f0013002000c6
:103b2000e2fd2f000f0141000800370000c8b3007c
:103b300080cf56001d003a00180ce8001c80e900f8
:103b4000000e78008001eb0010017800f88057002b
:103b50000a00780026fc070083ff370000c8b30086
:103b600080cf560011003a00180ce8004fb29700c1
:103b7000efb19700080037000e0c78000000eb0052
:103b8000c0b79f00e0b79f000080eb00d0b79f0058
:103b90000002eb00840178001200200041c72000e1
:103ba0000a0078004afe07006fff3700180ce80093
:103bb000090078004f0778004f06be004f05be0091
:103bc0004f04be006f01b100000006008200fa0041
:103bd000889fbe008a1f7800000578008204780064
:103be000c13f9f000004eb0010003700090278007d
:103bf00088017800a2f72f000f01410081f72f0004
:103c00008f8040000a00780084fe07000800400012
:103c1000880f500004003d00b00420005067880069
:103c20000084eb0004003700000478004f38970050
:103c30001004e000edff3a00080078004f0578001e
:103c40004f04be000080fa0000000600889fbe00fe
:103c50000004be000000eb000800e0001800320085
:103c6000180090000058a3000d003200d80090000a
:103c700068009000808f500009003600b80990005d
:103c80000001eb00820078000800780003000100ca
:103c9000d80090000080eb000100e0000800320036
:103ca0000000eb00200c980060049800500498007d
:103cb0000900e0000200320018007800dcf1070083
:103cc0004f04be0000000600889fbe000004be0036
:103cd0000000eb000800e000250032001800900012
:103ce0000058a30011003200d80090006800900036
:103cf000808f500009003600b80990000001eb00e9
:103d0000820078000800780003000100d8009000cd
:103d10000080eb000100e000150032000000eb0025
:103d2000200c98006004980050049800780a9000d5
:103d300008109000800f520006003100000252006f
:103d400011002000cfa2de00612bb900180078001e
:103d5000090007000000eb0000149800700c9800a8
:103d60000900e0000200320018007800b0f10700fe
:103d70004f04be0000000600a0fd2f00f1ff2f0041
:103d80006e0007004f89de00820178000000060007
:103d9000889fbe008a9fbe00800478000200e00079
:103da0005b00320001407800814c78008281440041
:103db000f1f99f00e20f5100550036009144980040
:103dc000a1449800e1f99f00d1f99f00e60f51004e
:103dd0004f003600b1449800c1f99f00e80f510030
:103de0004b0036000905ea00630565000a844400bb
:103df0000a055100c1ff2f00010565000080fb008e
:103e00008000eb001210200013102000c9030700ef
:103e1000008cbe000a01440060b99f0071b99f0088
:103e2000e80f55003a00360020049800310498004d
:103e3000400498005104980020b99f0031b99f00b8
:103e400040b99f0051b99f00f80f5500300036006f
:103e50006004980071049800000c9800110c980000
:103e6000200c9800310c9800400c9800510c9800e0
:103e700020b19f0031b19f0040b19f0051b19f0020
:103e800060b19f0071b19f0000b99f0011b99f0000
:103e900064016400780141000204440002055500f9
:103ea0006011b8000203be000002be000403be00a1
:103eb0006022b8000000720081807200020173006d
:103ec0008381730010003700009cbe000294be0086
:103ed000400498005104980062049800730498000c
:103ee000000c9800110c9800220c9800330c9800dc
:103ef000400c9800510c9800620c9800730c9800cc
:103f00000a02b1000802b000ff0f5500eeff3e00ac
:103f1000090078004f05be004f04be0000000600f7
:103f2000881f780000047800080078000803070064
:103f3000080078004f0478000000060002002f00ff
:103f4000f3ff2f00820f5000838f580004003600cb
:103f50000000ea00506788000080eb008080eb00e2
:103f600000000600f1fb2f0080804000f98f500018
:103f700001003e000050a00000000600f9ff3700dd
:103f80000f04b0008e1f7800020278000301780051
:103f90000000e00002003200000778000200370055
:103fa0000efc2f000f0747008002eb000100e0002d
:103fb000010032008102e9000f007800e003b10047
:103fc0001d0009000018eb000080eb0090a79f0087
:103fd00023102000a3a79f00bea79f00c1a79f009a
:103fe000d5a79f000100e00003003d00b1042000c0
:103ff0005167880007003700004feb00fea79f00c5
:10400000eea79f008400780020fc2f000f004000e6
:104010007bf707004f0778000f04b100000006008f
:10402000000006003e00fa00889fbe008a9fbe0086
:104030008c9fbe001007980083467800110078001e
:10404000400f9800910190004307980021029000d2
:10405000240f9800c1029000050f7800b100900075
:10406000611f98003204be002205be00281f980080
:10407000391f98004a1f98005b1f98006022b80003
:104080006033b8000800be000a01be00d402070079
:104090000000e00009003d000800be000a01be006b
:1040a00003f0a200201f9800311f9800421f9800c3
:1040b000531f9800d0c2b30004003700ce08900010
:1040c0000128a30009003200b0c2b3006e199000ad
:1040d00000497800ae0990008301e900330f980091
:1040e00014002000540f980010003700ce0a9000f2
:1040f0000538a3000900320000c2b3006e1b900017
:10410000004b7800ae0b90008703e900370f980052
:1041100018002000580f980004003700ae0c9000e3
:10412000390f98000005eb005a0f98002e189000e8
:10413000be1890004e199000de199000b8ff0700dd
:10414000f4ff2f00f5ff2f00f6ff2f00f7ff2700e9
:1041500004026000858260000603610087836100bd
:104160006000b8000200200003ff27000020e100eb
:1041700001a8e10002b0e10003b8e1000c003a0040
:104180008d06fb001d04b100ee1d9000de089000be
:104190000180450001cc2000f98f56000100360057
:1041a00041cc20005eff070040cc20002f023700ea
:1041b0000020e10001a8e10002b0e10003b8e10045
:1041c0000c0036008d06fb001d04b1006e19900036
:1041d000de0990000300410081cc2000f98f5600d9
:1041e00001003600c1cc20004dff0700c0cc2000ec
:1041f0001e02370000c3b3006e1a9000de0a900062
:1042000000f27a000500e800000142008d00fb008a
:10421000f6fb2f00068340002607980081c7b300f5
:10422000f90f530001003e0081c5b3000149780039
:104230000000e800500f98006022b8006033b8001a
:104240002e189000be1890004e199000de199000b4
:10425000630207000000e0005e0032008003eb0014
:104260006044b8000a0020000bff23006807980094
:10427000790798000a0f98001b0f9800070678002e
:10428000050037000c06e8006e0c9000fe0c900054
:104290000e1590009e1590000802be000a03be0095
:1042a0000800be000a01be00ae0207000002be0008
:1042b0000203be00640f9800750f9800061798005f
:1042c000171798002e189000be1890004e199000f5
:1042d000de199000420207000000e000e9ff3d0007
:1042e0006c0f98002a0037006022b80006002000fa
:1042f00007fe23000800be000a01be00930307006a
:104300006022b8006033b800350207000000e0000a
:1043100016003a006022b80006002000073524008d
:104320000800be000a01be00880307000004be00aa
:104330000205be006022b8000600200007352400f8
:104340002e189000be1890004e199000de199000b3
:104350007e0307000002be000203be00241f980077
:10436000351f9800461f9800571f98006022b8001c
:104370000600200007fe23000800be000a01be0060
:10438000720307000004be000205be000c06e9002f
:104390000802be000a03be002e189000be1890004e
:1043a0004e199000de1990000d0207000000e00099
:1043b000cdff35000800be000a01be00600798006e
:1043c00071079800020f9800130f98006c0f980067
:1043d000090037008000eb00610f98006022b800f0
:1043e0000600200007ff2300640798007507980067
:1043f000060f9800170f9800ce0290008001200051
:104400000500e000010035004e0090000000e800cb
:10441000300798006e049000fe0490000e0d90008e
:104420009e0d900068179800791798000a1f980051
:104430001b1f98002e1c9000be1c90004e1d90006b
:10444000de1d90000006eb003a0037006e1290006f
:10445000fe1290000e1b90009e1b90000800be00f4
:104460000a01be008a020700e40507000002be0040
:104470000203be00241798003517980046179800cd
:1044800057179800ff010700800278005507980031
:104490006e129000fe1290000e1b90009e1b90006a
:1044a0002e109000be1090004e119000de11900072
:1044b000260307000002be000203be000800be0083
:1044c0000a01be00210207000004be000205be0072
:1044d0006022b8000600200007fb23006e10900049
:1044e000fe1090000e1990009e199000170307000f
:1044f0000002be000203be00641798007517980002
:10450000061f9800171f98000c06e800ce029000c6
:104510000500e00007003d006022b8006033b800ed
:104520000800be000a01be00ad0107000000e00067
:10453000040032003e039000860f5600c3ff350092
:10454000010037003c0798006022b80006002000f8
:10455000070224006e109000fe1090000e199000cb
:104560009e199000f90207000002be000203be007f
:104570006417980075179800061f9800171f980079
:104580000800be000a01be00950107000000e0001f
:104590000d0035006e129000fe1290000e1b900070
:1045a0009e1b90000800be000a01be008c0107009f
:1045b0000000e00011003a00de0290000508a300b0
:1045c000080032000d0037006044b8006055b800a4
:1045d00068179800791798000a1f98001b1f980009
:1045e000060037006000b8006011b800601798003e
:1045f00071179800021f9800131f98006e12900008
:10460000fe1290000e1b90009e1b90002e18900032
:10461000be1890004e199000de199000d1010700dd
:104620000002be000203be006417980075179800d0
:10463000061f9800171f980079fe07000203be00ae
:104640000002be00f0ff2f00f1ff2f00f2ff2f004d
:10465000f3ff27000004620081846200020563000a
:1046600083856300281f9800391f98004a1f98000f
:104670005b1f98006000b8000200200003ff2700c5
:104680000040e10001c8e10002d0e10003d8e100f0
:10469000bbfe3200be0c90008984e900291f9800ff
:1046a0005e0e90008006eb005d0798002d179800c5
:1046b0006f0037006e029000fe0290000e0b90001b
:1046c0009e0b90006e109000fe1090000e1990004e
:1046d0009e199000ee010700480507000004be0087
:1046e0000205be0067010700800078000100e000bd
:1046f00006003a002e1090000000e0000300320097
:104700008d06e8003d0f9800330037005e019000f1
:104710000200e0000c003a00ae1190000300e0003f
:1047200009003200e0c2b3006e1a900000727e00f1
:104730000c06e800ae1a90008502e900251f9800db
:104740001600200056079800ee1b90000c814300d5
:104750000d007800070278000300370003c3b300a0
:10476000035978000000e9000000e000fbff3a0078
:10477000300f9800641f98000d064600e98f500026
:1047800003003c000003200001004000020037004d
:104790007005200001004000ae009000f98f50002d
:1047a00006003e00800078000150a0001106b10014
:1047b000f98f500001003e008af507006e19900045
:1047c00000717e000c06e8008d86ea00ae199000ac
:1047d0008d814100231f98006e029000fe02900020
:1047e0000e0b90009e0b90000800be000a01be0058
:1047f000560207000002be000203be006e109000c9
:10480000fe1090000e1990009e1990004f010700b5
:104810000002be000203be006417980075179800de
:10482000061f9800171f98006022b800060020009d
:1048300007fb23006e009000fe0090000e09900020
:104840009e099000410207000004be000205be0060
:1048500068079800790798000a0f98001b0f9800c6
:10486000ae1490008904e90029179800be0e90004c
:104870002e1590000a00ea00be0590008b0f500034
:1048800004003d009e00780065805000800f5600b7
:1048900088ff39005e0190000200e0001e003a002f
:1048a0000d00e0007d003400ce0190000300e00028
:1048b0007a0034004e0a90000408a30077003a0002
:1048c000ee1a90008c804200e0c2b300804878006d
:1048d0000d0078008501780002c3b300826878007b
:1048e0000000e900fcff3a00631f98000c864600b8
:1048f0000c06e8002e1b90000600e9000d00500099
:10490000201f980004003700e0c2b300ee1b9000a7
:1049100080737e000c06e8006e1c90000c004400c2
:104920000048eb009e0478008900e9000041eb009c
:1049300002f478008001eb006e0d90000a00e000a8
:1049400003003d000a05ea006a0f980013002000ea
:10495000120020006e0a9000810378002e1b900048
:104960006e1c9000800678000900370081037800f3
:10497000a5002000110009000502d8000002be00b9
:104980000543b00005f47b000201e9000603e900dd
:104990008700e9000400e000f4ff3a00e10f510055
:1049a000f2ff3200261f9800681f98000d00780063
:1049b00001024400b2c2b3000300e0000100320073
:1049c000d2c2b300024a78000101e900ee1990005a
:1049d0008280410003c7b3002e029000f90f5200fd
:1049e00001003e0003c5b30083487800820f5600e3
:1049f00001003d004afd0700ce0a9000638062007e
:104a0000e20f500018003a002e1b90000684e900c7
:104a10004240a900140034006e189000d9f4070039
:104a2000800044008100e800ee1b9000818043007c
:104a30008701780002003700e36078000000e90099
:104a4000de0c9000890f5000fbff3d00631f9800b3
:104a5000098041000801780001032000ccfc070018
:104a60000005eb002a0f98006e189000c5f40700af
:104a70004e0a9000ae09900000017800ee189000f8
:104a80001e00900092fa07004f06be004f05be00c0
:104a90004f04be000080fa0000000600ce0d90001a
:104aa0000b48a30098ff3a009bff37000000060068
:104ab000b0f40700fdff0700fcff3700f287470056
:104ac0008e1f780002027800030178000000e000e9
:104ad000020032000007780001003700728757009b
:104ae0008002eb000100e000010032008102e900d9
:104af00070805700060009000018eb000080eb00f2
:104b000080bf9f002310200093bf9f00aebf9f0077
:104b1000b1bf9f00c5bf9f000100e00003003d0042
:104b2000b10420005167880006003700004feb00f9
:104b3000eebf9f00debf9f008400780070805700aa
:104b400076f907004f0778002f01b100000006003a
:104b50000101780080017800008268000408a30049
:104b60000500320013003700324078008059780089
:104b70000004e00014003200030278000208a300e1
:104b8000f9ff3a00030078000100370003187800ad
:104b900082007800b2017800f5ef2f008382420096
:104ba0000382ea0004826200050828000502620010
:104bb000f6ff320000027800314178000258780098
:104bc0000204e000fbff3a00040078000000060049
:104bd00000c0da000000060000c0da000000060095
:104be0008f1fd1007c0307008f87e9000000e000e1
:104bf00000000600809feb00770307008f87e90025
:104c00000000e00000000600810378008bee070042
:104c10000001be006000b8000478a30013003a0051
:104c20006220e10015003e000d0039008301d10033
:104c30000281d3008180d3008301d1000281d3009f
:104c40008180d3008301d1000281d3008180d30011
:104c50000538b000c42add00f300b2008381720081
:104c600007f0a70003f0a0000000060083ff270064
:104c7000020020006110b900f9ff370003ff270090
:104c8000f7ff37001400fa00889fbe008a9fbe001d
:104c90008c9fbe000004be000205be0068004700f5
:104ca0000a90be000890be00860307000070a700af
:104cb0000bf0a100304320009e0290008082520041
:104cc000b0fe2f000028e10011003d00b0fc2f00d5
:104cd0000028e100150034001e0990008e089000a5
:104ce0007e0090000501b0000201d1008180d30058
:104cf0000080d3008502e800fbff3a000b00e000d3
:104d0000ab033b0060001000e0801800a8033700f0
:104d1000f0ff2f00f1ff27000b00e000a4033b0091
:104d20000100280000002000a10337006000b80047
:104d30009f033700020ab900001bb9000200b80047
:104d40008100420081004300000006008c9fbe00ed
:104d50008a9fbe00889fbe00ca0107000bf0a20018
:104d6000040037008c9fbe008a9fbe00889fbe0053
:104d7000c40107000c48e1000b003a000c40e100c0
:104d8000020032008b010700400037008b066d00e7
:104d90003e0032000af0a100f3012000f2ff2f00d4
:104da0006110b900390037000c40e10037003200d3
:104db0000940e100010036007e0107008a856d0090
:104dc000cf5dde000b0575000006eb008804fd00da
:104dd00089045400010032007d0107000a04e0004c
:104de00011003a000800e0002800320004004000f2
:104df0008580480006014900878149000358a300c7
:104e0000180032008301d1000281d3008180d300d9
:104e10000080d3000c86d3000100390061067600c3
:104e20000804e8001800370004005000858058008e
:104e30000601590087815900060031000af0a200de
:104e40000c06ea0060001800e080180060011900fc
:104e5000e081190003003a000004eb000005eb00bc
:104e60000a0037000348a30007003a000c0646007a
:104e70000000480081804800020149008381490008
:104e80000804e900f7ff3700af013700c901370018
:104e90008c9fbe008a9fbe00889fbe0079010700dc
:104ea0000b056d000940e1000a003a000800e0002f
:104eb000020032000c40e10006003a000af0a100b6
:104ec0000c047800f3012000f2ff2f006110b900fc
:104ed0009d0037000c40e1009b0032000800e0001c
:104ee000990032000c48e10002003a000004eb0097
:104ef000030037000900e00004003a000c047800c9
:104f00006000b8006011b8008f0037000348a300ac
:104f100006003a000000400081804800020149007c
:104f2000838149000804e900f8ff37000748a3001f
:104f300006003a000402420085824a0006034b0044
:104f400087834b008904e900f8ff3700fd3f20000c
:104f50008d845400090454008a1f7800881f78004b
:104f60000004780081047800020578008305780049
:104f70006000b8006011b8000d0420000500370083
:104f80000804440089844c000a054d008b854d00bf
:104f9000080031000404540085845c0006055d00af
:104fa00087855d008381d2008d06d300f4ff3b002e
:104fb000070037000404440085844c0006054d00ba
:104fc00087854d008381d2008d06d300ecff3b0026
:104fd0000804440089844c000a054d008b854d006f
:104fe000080031000404540085845c0006055d005f
:104ff00087855d000281d2008d06d300f4ff3b005f
:10500000070037000404440085844c0006054d0069
:1050100087854d000281d2008d06d300ecff3b0056
:105020000804440089844c000a054d008b854d001e
:10503000080031000404540085845c0006055d000e
:1050400087855d008180d2008d06d300f4ff3b0090
:10505000070037000404440085844c0006054d0019
:1050600087854d008180d2008d06d300ecff3b0088
:105070000804440089844c000a054d008b854d00ce
:10508000080031000404540085845c0006055d00be
:1050900087855d000080d2008d06d300f4ff3b00c1
:1050a000070037000404440085844c0006054d00c9
:1050b00087854d000080d2008d06d300ecff3b00b9
:1050c0000b00e00004003d000404440085844c0013
:1050d00006054d0087854d000006eb008301d100d9
:1050e0000281d3008180d3000080d3000c86d300de
:1050f0008301d1000281d3008180d3000080d300de
:105100000c86d300890474008b0575008b847400b1
:1051100001003200610676004f0478004f057800e8
:105120000348a30007003a000c06460000004800b0
:105130008180480002014900838149000804e90098
:10514000f7ff3700000137001a0137008c9fbe00bf
:105150008a9fbe00889fbe00ca0007000b056d0035
:105160008a0578000c40e10008003a000900e000e0
:1051700082003a000af0a1000c047800f30120003c
:10518000f2ff2f006110b9007c0037000c48e100ed
:1051900004003a00870007000900e00077003a00a9
:1051a000f4ff37000800e000740032000900e0005e
:1051b00002003a007f00070070003700ed3f20003a
:1051c0008d845400090444008a1f7800881f7800e9
:1051d000871f7800861f7800851f7800841f78005d
:1051e000cb19dd00c515de008b8571004b11dd008c
:1051f000450dde000a057100cb08dd00c504de00a8
:10520000898470004b04dd000440b8000546b800f6
:105210008c80400060814e00044eb8008c804000bd
:105220000d0149008001eb000318ad000456b800e1
:105230000c0141008d8149000002eb000420ad000b
:105240000646b8000c0141008d81490060024a0009
:10525000054eb8000c0141008d81490060024a00f2
:105260000556b8008c8141000d024a008002eb0017
:105270000528ad000746b8008c8141000d024a00a8
:10528000e0824a00064eb8008c8141000d024a00bf
:10529000e0824a004f0678000c5eb8008c81410025
:1052a0000d024a00e0824a000656b8000c02420095
:1052b0008d824a000003eb000630ad00074eb800b7
:1052c0000c0242008d824a0060034b004f067800ba
:1052d0000c5eb8000c0242008d824a0060034b0055
:1052e0000756b8008c8242000d034b008003eb0090
:1052f0000738ad004f0678000c5eb8008c82420083
:105300000d034b00e0834b004f0678000c5eb800a5
:105310000c0343008d834b004f0478004f05780049
:105320000748a3000a003a000000400081804800be
:10533000020149008381490004024a0085824a0033
:1053400006034b0087834b000804e900f4ff370095
:1053500003067800808070008280700001003200b7
:1053600061067600870178000601780085007800e4
:105370000400780088047800780037008d0037003a
:105380008c06460002003a000000a600000006005d
:1053900060004800e080480060014900e081490069
:1053a0000350a600000006008301d1000804e800b5
:1053b000000006000002fd008102fd000203fd0066
:1053c0008303fd008804fd008a05fd00000006003f
:1053d0007048e1001a0039007d0320000d48e1000b
:1053e0000a00390081057000830671008c85750004
:1053f0008d8575000006eb000cd8e700610676008d
:105400006000b8006011b800000006007048e100bc
:105410000b0039008c057800000678000100780048
:1054200082007800030178008001eb0003d8e700d8
:1054300061067600f0845400f4ff3a000000060094
:105440006160e1000c48ad00f08514008b06dd00c2
:105450000966de000d0676008b0edd000900de0019
:105460000d0070008b16dd008908de008d80700055
:105470008b1edd000911de000d0171008919de00af
:10548000000006000d002800fc7f20000d85610053
:10549000441cde00ef8161000c0464000100320056
:1054a0000340a0008d856300c43cde00ef836300f1
:1054b0008c846400010032000740a0000c40e10031
:1054c00006003a00ef8661008286760081867600cb
:1054d0008086760001003200180037000c48e10099
:1054e00007003a00ef8663008686760085867600a0
:1054f0008486760002003200aeff07000f003700fe
:105500000348a30005003a008106700082867600f9
:1055100083867600010032000804e8000748a300f3
:1055200005003a008506720086867600878676003a
:10553000010032008904e80000000600cf04780072
:10554000cf0578001b003700000278008102780048
:105550000203780083037800880478000cf0a70029
:1055600087ff0700fd7f20000d40e10004003500ab
:105570000d0478006000b8006011b8000d0037001d
:105580000800e0000b003c00040078008500780073
:105590000601780087017800e18414008cff070081
:1055a0000cf0a70076ff07000004eb000340a70003
:1055b0000804e8004444dd006fc5610088017500ff
:1055c0004f04be004f05be004f06be00000006009f
:1055d000889fbe008a9fbe0030044200b0844a000b
:1055e00030054b0090854b006000b1000898be006c
:1055f0000a90be000440e10005c8e10006d0e100c9
:1056000007d8e10002003100680040001008e800ff
:105610004f05be004f04be0000000600889fbe007c
:105620008a9fbe003004be002005be00041854004e
:1056300005985c0006185d0007985d0011002000c9
:105640000440e10005c8e10006d0e10007d8e10010
:10565000010039008000eb00108810004f05be00eb
:105660004f04be00000006001200fa00889fbe0032
:105670008a9fbe008c9fbe00e0b79f00f1b79f00dd
:1056800082bf9f0093bf9f000605be000404be00ba
:105690000000eb00d0b79f00c0b79f00b0b79f00dd
:1056a000a0b79f0090b79f00000678005fb19700f9
:1056b000cfb09700820141003fb097000200e000a8
:1056c00004003d00370007007e805700c0ff070040
:1056d00003003700330007007e805700cfff07002c
:1056e000dfb697000d00e0000c0035006fb29700a8
:1056f000ffb297000fbb97009fbb970010002000e0
:10570000010020006011b800000272008182720066
:1057100002037300838373001b0007000c06e8007c
:1057200001042000810f5600e0ff3a000d00e00068
:1057300004003d000802be000a03be007e80570040
:10574000a3ff07005fa897000000e00005003a00f3
:105750001fb29700afb297003fb39700cfb3970047
:10576000090007006fb09700ffb097000fb99700ce
:105770009fb997004f06be004f05be004f04be0004
:105780000080fa000000060001000700000006008b
:10579000a4b79f00b5b79f00c6b79f00d7b79f00bb
:1057a000000006004f09de0082817100b3b79f0040
:1057b0004f01de008180400082807000a1b79f0011
:1057c0008fb097004f09de0000004000020070001b
:1057d00090b79f007fa897004f01de0081804000b6
:1057e0008280700081b79f000d0007004f3ade00f5
:1057f0000000400004007000f0af9f0008000700a8
:105800000402420085824a0006034b0087834b0056
:10581000dfff07000802be000a03be00000006000a
:105820002fb29700bfb297004fb39700dfb3970036
:1058300000000600881f780018002000881f7800ec
:1058400089ff07008f87e9004f04780000000600f9
:10585000801feb0084ff07008f87e900000006002f
:10586000889fbe008a9fbe00e00f5000e08f580066
:10587000e00f5900e08f59000c003d006044b80073
:105880006055b8000000540081805c0002015d009a
:1058900083815d00180020001500070008003d000e
:1058a000180007000004eb00050037000004eb00bf
:1058b0000f00070002003d00120007001800200042
:1058c000dcff07000800e000060032006022b8009c
:1058d0006033b8000000520081805a0002015b0072
:1058e00083815b004f05be004f04be000000060030
:1058f000e00f5200e08f5a00e00f5b00e08f5b008a
:10590000000006006044b8006055b800040254006e
:1059100085825c0006035d0087835d000000060051
:10592000889fbe008a9fbe008c1f7800e00f500049
:10593000e08f5800e00f5900e08f59000d003d0046
:105940006044b8006055b8000000540081805c00dd
:1059500002015d0083815d001c0020000820e10041
:1059600009a8e1000ab0e1000bb8e1000d003d001c
:10597000080037000006eb00e00f5200e08f5a00ed
:10598000e00f5b00e08f5b0006003d006044b80064
:105990006055b8000402540085825c0006035d0077
:1059a00087835d00aaff07000c00e00006003200bc
:1059b0006022b8006033b8000000520081805a00b5
:1059c00002015b0083815b004f0678004f05be003b
:1059d0004f04be0000000600889fbe008a9fbe00e4
:1059e0008c9fbe000404be000605be00809fbe0062
:1059f000829fbe0021000700040678000800be0058
:105a00000a01be001d000700840678004f03be0097
:105a10004f02be008d4f76007fb097001300330019
:105a2000f0ff2f008b8f6b0006003b000d06660019
:105a30000c00a7000a00370007f0a60010002000a5
:105a40000a003700880f5200898f5a008a0f5b00c6
:105a50008b8f5b00030039001000200001003e0026
:105a60000000200007f0a7000000ea004f06be007b
:105a70004f05be004f04be000000060005ff2700d2
:105a800005826100070032000428e10001003200b5
:105a9000240005000600070001003a00440005004c
:105aa0000408050002000700f9ff3a001400050091
:105ab0006f826100810270008502710085027200b0
:105ac00000000600800078005002be005003be00b7
:105ad0004439de00f700b200f37f200003016100cb
:105ae000090032000218e10016003a008501720038
:105af00083017300838173000008200015003a00c1
:105b000040002000130037008501720083017300fc
:105b10008381730005003a0004a8be0006a8be00f9
:105b2000100020000b0037000201e90004024200cf
:105b300085824a0006034b0087834b000748a30079
:105b4000f9ff32000740a00004a8be0006a8be006e
:105b500020002000800098009200980000000600bd
:105b6000680447000294be000094be00fc04470095
:105b70008694be008494be0009007800d1ff07001f
:105b800008007800cfff070099007800814f70006f
:105b90000b003b000800be000a0007004f00b100e8
:105ba00003003700f3ff2700f2ff2f006110b90058
:105bb0004f06be004f05be004f04be000080fa0035
:105bc00000000600e48240001078a30007003200c5
:105bd000640240001178a3003400be001401be002e
:105be000040032000330a700000006003500be00ac
:105bf0001501be000330a000000006001800fa00e6
:105c0000889fbe008a9fbe008c1f78000004be00e3
:105c10000205be000802be000a03be00443ade00d0
:105c2000f07f20000006620020432000800f560015
:105c300067003c006022b8006033b8000800be0076
:105c4000e7fb07000000e000610032000802be0030
:105c50000a03be00b4b79f00c5b79f00d6b79f0028
:105c6000e7b79f00e00f5200e08f5a00e00f5b00a3
:105c7000e08f5b000b003d006022b80006002000b2
:105c8000073324000800be000a01be002ffc0700f5
:105c90006022b800060020000733240031fc070012
:105ca0000a0037006022b8000600200007332400f5
:105cb0000800be000a01be002afc07006022b800ee
:105cc000060020000733240020fc07000802be0065
